:020000040800F2
:1000000000500020CD340008D1050008D5050008B7
:10001000E9050008ED050008F105000800000000F2
:10002000000000000000000000000000F9050008CA
:10003000F505000800000000FD05000801060008A5
:100040001535000815350008153500081535000868
:100050001535000815350008153500081535000858
:100060001535000815350008153500081535000848
:100070001535000815350008153500081535000838
:100080001535000815350008153500081535000828
:100090001535000815350008153500081535000818
:1000A0001535000815350008153500080506000847
:1000B00015350008153500081535000815350008F8
:1000C00015350008153500081535000815350008E8
:1000D00015350008153500086D06000815350008AF
:1000E000153500081535000815350008000000001A
:1000F0000000000000000000000000000000000000
:0C01000000000000000000005FF808F1A3
:1001100010B5054C237833B9044B13B10448AFF341
:1001200000800123237010BDF801002000000000B2
:100130000C01000808B5034B1BB103490348AFF39A
:10014000008008BD00000000FC0100200C01000838
:1001500010B5012182B00C2000F0B2FD012108464B
:1001600000F0AEFD114C0121114801F013F9114BC3
:10017000204601A9019301F06DF80F4B01A920461B
:10018000019301F067F80D4B204601A9019301F09E
:1001900061F801210A4801F0FDF80A4B01A90A485B
:1001A000019301F057F802B010BD00BF00080140F4
:1001B00000023000040003180800030420000310AC
:1001C0000001180008000318000C014030B501219F
:1001D00085B04FF4003000F07FFD4FF4E13500238F
:1001E0004FF440220C4C69462046CDE90053ADF84F
:1001F0000C30029200F030FE4022084B20465A603C
:1002000040F22551012200F0ADFE2046012100F010
:100210009DFE05B030BD00BF0044004000E100E09D
:10022000012140F29F52114B11481B6830B5A0FBD1
:100230000303104C9B0B85B0013B08462380628072
:1002400000F04AFD00236588228801A94FF0804014
:10025000ADF80450ADF80820ADF80630ADF80A301E
:100260008DF80C3001F082FA05B030BD100000208E
:100270000D3AB8EE14020020F0B5012189B04FF418
:10028000006000F01DFD4FF4C06002F083F9194BCF
:1002900001A8019302F088F944F24F61082741F662
:1002A000092200250126144B144CD980D9882046F8
:1002B000ADF808100DEB07019A80ADF80C20ADF8F1
:1002C0000E50ADF80A508DF8105001F04FFA20464C
:1002D00005A9ADF81C50CDE9057601F09BFB314630
:1002E000204601F0CFFC32463946204601F0E4FCBE
:1002F00009B0F0BD1B00000114020020002C0140D9
:10030000F8B5012402204FF0700C002504274FF4AB
:1003100080761449DFF854E00A88224402EB420256
:1003200002FA04F3AEFB03230F4AC3F3CF030B819E
:10033000108111464FF08040D38097809681548081
:100340005581D581A2F800C001F0AAFA21464FF0EC
:10035000804001F097FC2146BDE8F8404FF0804016
:1003600001F09CBC1402002008030020CDCCCCCCB2
:10037000002841F253710DDD82B0019100E000BF11
:10038000019B5A1E002B0192F9DC01380028F4DC95
:1003900002B07047704700BF38B50546094C208849
:1003A000013002F009FA294602F05AFA02F0A8FBDD
:1003B00083B2194623814FF08040BDE8384001F0F8
:1003C000B1BE00BF1402002030B5012187B04FF448
:1003D000001000F081FC0121022000F0DBFF0D4B3A
:1003E00001A90D48019300F035FF4FF480410B4CFB
:1003F0000B4A0C4B0C4D2046ADF8141002A9CDE968
:100400000252049301F012FF2046012101F086FF01
:1004100007B030BD0003031C000C01400054004035
:100420000000FFBF01000004A086010070B50E4669
:1004300082B00121044601F095FF1E4D2946204659
:1004400002F062F80028F9D031460022204601F07F
:10045000DFFF194D2946204602F056F80028F9D052
:100460004321204601F0CEFF144D2946204602F0DC
:100470004BF80028F9D00121204601F07FFF4FF40E
:100480000031204602F054F80028F8D1C82141F28A
:100490005370019000E000BF019B5A1E002B019297
:1004A000F9DC0139F5D1064802B0BDE8704003F02F
:1004B00099BC00BF01000300820007008400070010
:1004C0008060000870B50E460121044601F04AFF25
:1004D0001F4D2946204602F017F80028F9D00121C7
:1004E000204601F057FF4FF400611A4801F0B2FFB7
:1004F00031460122204601F08BFF174D2946204648
:1005000002F002F80028F9D00021204601F042FF55
:10051000124D2946204602F00BF80028F9D001219F
:10052000204601F02BFF204601F06EFF0C4DA87213
:10053000204601F069FFE8724FF40031204601F0D7
:10054000F7FF0028F8D1BDE87040064803F0D0BCA2
:1005500001000300005400400200030004000010EA
:100560001402002090600008202108B5074800F020
:10057000DFFE01284FF02001044803D0BDE8084009
:1005800000F0E0BEBDE8084000F0DEBE000801401B
:1005900010B5044600F042FD8021204600F0ACFD7D
:1005A0000028F9D010BD00BF70B5054600240E46E6
:1005B000097801342846E4B2FFF7EAFF315D0029EB
:1005C000F7D14021284600F097FD0028F9D070BDF2
:1005D000704700BF08B56121024800F01FFDFFF71A
:1005E000C3FFFEE700440040FEE700BFFEE700BF98
:1005F000FEE700BF704700BF704700BF704700BFF5
:10060000704700BF38B50821154801F0E1FD012809
:1006100000D038BD134D04460821114801F0E4FD17
:100620002B880F489BB26BB101F0BEFDA880AB8850
:100630006A889A420BD8AB886A889B1AAB60002301
:100640002B8038BD01F0B0FD68802C8038BD064B92
:1006500069881B88AA8801335B1A1344AB60EEE7F4
:10066000002C0140EC0200201802002038B540F2B6
:1006700025516C4800F04AFD012800D038BD69487A
:1006800000F0D0FCC0B2742847D0664800F0CAFC25
:10069000C0B2312851D0634800F0C4FCC0B2632816
:1006A00058D0604800F0BEFCC0B276285FD05D48EC
:1006B00000F0B8FCC0B261286AD05A4800F0B2FC21
:1006C000C0B26E2875D0574800F0ACFCC0B22B28E1
:1006D0007CD0544800F0A6FCC0B22D2800F08C80DD
:1006E000504800F09FFCC0B2732805D0BDE83840E8
:1006F00020214C4800F006BDFFF736FF90214A4804
:10070000FFF7E0FE494B4A48197803F06BFB494B71
:100710004948197803F066FBE8E7484C484DFFF775
:1007200023FF0022474B48494848256003F0E8FB77
:1007300046493C48FFF738FFA7E7FFF715FF444B52
:1007400044499A68414803F0DBFB40493548FFF7CC
:100750002BFFA0E7FFF708FF3F4B40491A683B48D3
:1007600003F0CEFB39492F48FFF71EFF99E7FFF74B
:10077000FBFE3B4801F018FD354B3A4958805A883A
:10078000324803F0BDFB31492648FFF70DFF8EE7E5
:10079000FFF7EAFE324801F00DFD2D4B32499881FA
:1007A0009A892A4803F0ACFB28491E48FFF7FCFE53
:1007B00083E7FFF7D9FE2D4B2D491A88234803F014
:1007C0009FFB22491748FFF7EFFE7CE7274CFFF716
:1007D000CBFE23884FF0804001339BB21946238023
:1007E00001F0A0FC22882349184803F089FB17492F
:1007F0000C48FFF7D9FE6CE71C4CFFF7B5FE2388C9
:100800004FF08040013B9BB21946238001F08AFCE7
:10081000228818490D4803F073FB0C490148FFF783
:10082000C3FE5DE700440040005400401E0200206B
:100830005C6100081F0200206C610008E8020020D3
:100840000000304100002540D06000082002002058
:10085000EC020020D860000810000020E8600008CA
:10086000002C014000610008146100081C020020F7
:100870002861000840610008044A05491368002BFC
:1008800008BF0B461844106018467047FC02002051
:10089000280300204FF0FF30704700BF4FF0FF30BB
:1008A000704700BF4FF4005300204B60704700BFFB
:1008B000012070470020704700207047F8B5171ED0
:1008C00011DD0E460025094C16F8011B204600F0EC
:1008D000A5FB4021204600F00FFC0028F9D001358F
:1008E000ADB2BD42F0DB3846F8BD00BF0044004069
:1008F00030B400244FF41F053A4B3B4A196882B0CC
:1009000041F001011960596818460A405A601A6896
:1009100022F0847222F480321A601A6822F4802253
:100920001A605A6822F4FE025A609D600094019495
:100930001A6842F480321A6003E0009BB3F5A06F9E
:1009400009D0036803F400330193009B0133009343
:10095000019B002BF1D0234B1B6813F4003318BF0D
:1009600001230193019B012B06D04FF000621F4B26
:100970009A6002B030BC70471D491A4B08681A468D
:1009800040F010000860086820F003000860086864
:1009900040F0020008605968596059685960596808
:1009A00041F480615960596821F47C11596059689B
:1009B00041F4E8115960196841F0807119601368B9
:1009C0009B01FCD55368074923F003035360536828
:1009D00043F0020353604B6803F00C03082BFAD179
:1009E000C3E700BF001002400000FFF800ED00E088
:1009F00000200240114A536803F00C03082B09D071
:100A00000F4B0E4A0F495268C2F303128A5CD3405F
:100A10000B61704753685168C3F38343C90303F103
:100A2000020306D55268920303D4054A02FB03F37E
:100A3000E7E7054A02FB03F3E3E700BF00100240CB
:100A400000127A000000002000093D004FF41F0052
:100A50000C4B0D4A196841F00101196059680A40B0
:100A60005A601A6822F0847222F480321A601A687E
:100A700022F480221A605A6822F4FE025A609860BA
:100A8000704700BF001002400000FFF80C4BB0F5AB
:100A9000803F1A6822F480321A601A6822F4802299
:100AA0001A6008D0B0F5802F04D11A6842F4A02251
:100AB0001A60704770471A6842F480321A607047B3
:100AC00000100240002382B00A4A0193136813F415
:100AD000003F019B03F101030193019B05D0054BEE
:100AE0001868C0F3404002B07047B3F5A06FEDD175
:100AF000F5E700BF00100240034A136823F0F80333
:100B000043EAC0001060704700100240014B1860BB
:100B1000704700BF00004242034A536823F47C132D
:100B2000194301435160704700100240014B1860A7
:100B3000704700BF60004242034A536823F003033A
:100B400018435060704700BF00100240024B5868C5
:100B500000F00C00704700BF00100240034A5368C9
:100B600023F0F00318435060704700BF00100240AC
:100B7000034A536823F4E06318435060704700BF92
:100B800000100240034A536823F4605343EAC00054
:100B90005060704700100240044A137811B10343BB
:100BA0001370704723EA0003137070470910024066
:100BB000014B1860704700BFD8004242034A536897
:100BC00023F4404318435060704700BF00100240B8
:100BD0000022064B01281A701A7005D0042802D191
:100BE00005221A7070477047187070472010024035
:100BF000014B1860704700BF80044242024A136AEA
:100C000018431062704700BF00100240014B18608B
:100C1000704700BF3C0442421F4A10B4536803F0BF
:100C20000C03042B01D0082B20D01C4B03601A4965
:100C30001B4A4C68C4F30314145DE34043604C68E2
:100C4000C4F30224145D23FA04F484604C68C4F3F2
:100C5000C224145DE340C360496810BCC1F3813114
:100C60000A44127CB3FBF2F3036170475368516886
:100C7000C3F38343C90303F1020307D55268920308
:100C800004D4064A02FB03F30360D0E7054A02FBE3
:100C900003F30360CBE700BF0010024000127A00AC
:100CA0001400002000093D00044A536911B10343B8
:100CB0005361704723EA00035361704700100240FC
:100CC000044A936911B103439361704723EA000317
:100CD0009361704700100240044AD36911B1034385
:100CE000D361704723EA0003D361704700100240CC
:100CF000044AD36811B10343D360704723EA000369
:100D0000D360704700100240044A136911B10343D5
:100D10001361704723EA000313617047001002401B
:100D2000014B1860704700BF40044242014B1860FD
:100D3000704700BF4C004242014B1870704700BF23
:100D4000071002404309012B0BD0022B094B00F086
:100D50001F000CBF1B6A5B6A23FA00F000F0010061
:100D60007047044B00F01F001B6823FA00F000F0EE
:100D70000100704700100240024A536A43F080733A
:100D80005362704700100240034B9B68184214BF27
:100D900001200020704700BF00100240014B187076
:100DA000704700BF0A10024008B5264B984218D081
:100DB000254B984221D0254B98422AD0244B98426B
:100DC00003D0244B984230D008BD01214FF40020BD
:100DD000FFF79AFFBDE8084000214FF40020FFF71D
:100DE00093BF01214FF48040FFF782FFBDE8084028
:100DF00000214FF48040FFF77BBF01214FF400300A
:100E0000FFF782FFBDE8084000214FF40030FFF7F4
:100E10007BBF01214FF48020FFF776FFBDE808403B
:100E200000214FF48020FFF76FBF01214FF48010A5
:100E3000FFF76AFFBDE8084000214FF48010FFF77C
:100E400063BF00BF0038014000440040004800403C
:100E5000004C00400050004030B50D460446038A67
:100E6000CA889BB223F4405313438A890382808942
:100E7000234B8988034028890B43698903430B432B
:100E8000A381A38A87B09BB223F44073134301A8C4
:100E9000A382FFF7C1FEDDE903311A482A688442C4
:100EA00008BF0B46A18903EB830309044CBF520022
:100EB000920003EB8303B3FBF2F364221248A5898B
:100EC000A0FB03C1490902FB11332A044FEA0111B7
:100ED0000AD41B013233A0FB0323C3F343130B4398
:100EE0009BB2238107B030BDDB003233A0FB03236C
:100EF000C3F3421242EA01039BB2238107B030BD23
:100F0000F3E9FFFF003801401F85EB5100234FF448
:100F100016514FF440220160C0E9013283817047CD
:100F200030B40B884D888C88028A2B43C9882343B0
:100F300092B20B4322F470621343038230BC7047B9
:100F40000023038043808380C3807047838919B165
:100F500043F400538381704723F400531B041B0C9C
:100F600083817047012310B401F01F04C1F34211C3
:100F7000012903FA04F30FD002290CBF10301430FA
:100F800022B1026810BC134303607047026810BCB2
:100F900022EA0303036070470C30F1E7838A12B141
:100FA00019438182704723EA01018182704700BFA3
:100FB000038A23F00F031B041B0C0382038A1943CB
:100FC00001827047838923F400631B041B0C838117
:100FD0008389194381817047838919B143F00203E2
:100FE0008381704723F002031B041B0C838170472D
:100FF000038A23F020031B041B0C0382038A19437A
:1010000001827047038A19B143F480430382704719
:1010100023F480431B041B0C03827047C1F30801B7
:10102000818070478088C0F308007047838943F04F
:1010300001038381704700BF038BDBB20383038B03
:1010400043EA012101837047038B03F47F43038349
:10105000038B194301837047838A19B143F020033E
:101060008382704723F020031B041B0C838270478C
:10107000838A19B143F010038382704723F0100371
:101080001B041B0C83827047838A19B143F0080349
:101090008382704723F008031B041B0C8382704774
:1010A000838919B143F4004383817047C3F30E036E
:1010B00083817047838A19B143F400638382704748
:1010C00023F400631B041B0C83827047838A23F084
:1010D00004031B041B0C8382838A1943818270479B
:1010E000838A19B143F002038382704723F002031D
:1010F0001B041B0C838270470388194214BF012014
:1011000000207047C94389B2018070470123C1F3B1
:10111000421210B4012A01F01F0403FA04F314D0A0
:10112000022A0CBF028A828A1340028892B24BB113
:101130000123090A03FA01F10A4214BF18460020EC
:1011400010BC7047184610BC704782891340ECE70A
:101150000123090A8B40DB439BB20380704700BF29
:1011600008B52F4B98421CD02E4B984223D02E4BC3
:1011700098422AD02D4B984209D02D4B98422ED020
:101180002C4B984235D02C4B98423CD008BD0121C5
:101190002020FFF7ADFDBDE8084000212020FFF72B
:1011A000A7BD01210420FFF7A3FDBDE808400021F1
:1011B0000420FFF79DBD01210820FFF799FDBDE840
:1011C000084000210820FFF793BD01211020FFF700
:1011D0008FFDBDE8084000211020FFF789BD0121E7
:1011E0004020FFF785FDBDE8084000214020FFF7C3
:1011F0007FBD01218020FFF77BFDBDE80840002175
:101200008020FFF775BD01214FF48070FFF770FD5E
:10121000BDE8084000214FF48070FFF769BD00BFB2
:1012200000080140000C0140001001400014014082
:1012300000180140001C014000200140012108B5B8
:101240000846FFF755FDBDE8084000210120FFF7E3
:101250004FBD00BF2DE9F041CD780A88EB0648BFAD
:101260008B7805F00F0748BF1F4312F0FF0F21D006
:1012700000234FF0010C4FF00F08066802E0013325
:10128000082B16D00CFA03F131EA0204F7D19C00C6
:1012900008FA04FE26EA0E0607FA04F4282D46EAA8
:1012A00004062ED0482D03F1010308BF0161082B6D
:1012B000E8D10660FF2A22D908234FF0010C4FF035
:1012C0000F08466802E00133102B17D00CFA03F424
:1012D00034EA0201F7D19900203908FA01FE26EA22
:1012E0000E0607FA01F1282D46EA01060BD0482D1B
:1012F00003F1010308BF0461102BE7D14660BDE88C
:10130000F0814161BBE74461DDE700BF4FF6FF724A
:1013100040F2024302804380704700BF8368194255
:1013200014BF012000207047806880B2704700BF62
:10133000C368194214BF012000207047C06880B202
:10134000704700BF01617047416170470AB1016198
:1013500070474161704700BFC160704741F48033FE
:1013600083618161836183698369704710B44FF63B
:101370008074044A13682340194341EA0011116044
:1013800010BC704700000140014B1860704700BF5F
:101390001C0020420028194B00F44012B4BFDB6946
:1013A0005B68B2F5401F30B484B21ED0C20213D5C0
:1013B0000322C0F30345AA4023EA020343F070630B
:1013C00019B1420D1201944023430C4A0028B4BFC6
:1013D000D361536030BC7047420D120104FA02F22F
:1013E00023EA020343F07063EAE7044D23F07063DD
:1013F0006A6822F070626A60E2E700BF00000140A4
:1014000010B40F2401F0FC0303F1804303F5803393
:1014100001F003019A6889008C4022EA04029A6074
:101420009A6800FA01F11143996010BC704700BF3F
:10143000014B1860704700BFDC00204270B4058C7F
:101440001B4E25F001052D042D0C0584048B42EA6A
:10145000031324F0F3042404240C058C1C43B04231
:10146000A4B2ADB21BD0134B984218D0B0F1804F4C
:1014700015D0A3F59833984211D003F580639842B4
:101480000DD003F58063984209D025F00A0341EAA4
:10149000030545F001050483058470BC704725F001
:1014A00002050D4345F001050483058470BC7047B7
:1014B000002C01400034014070B440F6FF45048C1C
:1014C000120224F010042404240C0484048B42EA45
:1014D0000333174A2540068C1D430C019042ADB2E0
:1014E000B6B2A4B21AD0134B984217D0B0F1804FC5
:1014F00014D0A3F59833984210D003F58063984236
:101500000CD003F58063984208D026F0A0060E4365
:1015100046F010040583048470BC704726F0200652
:10152000344344F010040583048470BC704700BF4A
:10153000002C01400034014008B57C4B984242D059
:10154000B0F1804F4BD07A4B984252D0794B9842B1
:101550002FD0794B984256D0784B98425DD0784B3B
:10156000984264D0774B984200F08380764B984243
:1015700067D0764B984200F08880754B984200F017
:101580009080744B984200F09880734B984200F022
:101590009E80724B984200F0A480714B984200F0FC
:1015A000AC80704B984258D06F4B984200F0B1809D
:1015B00008BD01210420FFF7A7FBBDE8084000217A
:1015C0000420FFF7A1BB01214FF40060FFF790FB5F
:1015D000BDE8084000214FF40060FFF789BB0121FE
:1015E0000846FFF791FBBDE8084000210120FFF706
:1015F0008BBB01210220FFF787FBBDE808400021DB
:101600000220FFF781BB01210820FFF77DFBBDE829
:10161000084000210820FFF777BB01211020FFF7C9
:1016200073FBBDE8084000211020FFF76DBB0121CE
:101630002020FFF769FBBDE8084000212020FFF7CC
:1016400063BB01214FF40020FFF752FBBDE80840C7
:1016500000214FF40020FFF74BBB01214FF4003075
:10166000FFF746FBBDE8084000214FF40030FFF7CC
:101670003FBB01214FF40050FFF73AFBBDE80840A3
:1016800000214FF40050FFF733BB01214FF48010CD
:10169000FFF72EFBBDE8084000214FF48010FFF754
:1016A00027BB01214FF40010FFF722FBBDE80840E3
:1016B00000214FF40010FFF71BBB01214020FFF772
:1016C00023FBBDE8084000214020FFF71DBB01219E
:1016D0008020FFF719FBBDE8084000218020FFF7BC
:1016E00013BB01214FF48070FFF70EFBBDE80840EB
:1016F00000214FF48070FFF707BB01214FF48030C9
:10170000FFF7F6FABDE8084000214FF48030FFF7FC
:10171000EFBA01214FF48020FFF7EAFABDE8084054
:1017200000214FF48020FFF7E3BA00BF002C0140F6
:101730000004004000080040000C00400010004081
:101740000014004000340140004C014000500140B2
:101750000054014000180040001C004000200040E0
:10176000004001400044014000480140274A0388EE
:10177000904270B49BB212D002F5006290420ED03B
:10178000B0F1804F0BD0A2F59832904207D002F50D
:101790008062904203D002F58062904203D14A8871
:1017A00023F0700313431A4D8C88A8420A8815D081
:1017B00005F58065A84211D0CE8823F440739BB212
:1017C00005F58C353343A8420380848502850CD10E
:1017D00070BC0B7A03860123838270470380848563
:1017E0000285012370BC838270470A4B9842EFD078
:1017F00003F540639842EBD003F580639842E7D04D
:1018000003F580639842E3D0EBE700BF002C014072
:101810000010004000340140038CF0B423F00103B9
:101820001B041B0C0D890384028C4E8822F00202DB
:1018300084881204038B3543120C23F073032A436C
:10184000164D1B040E881B0CA842A4B243EA0603E3
:101850000FD005F50065A8420BD005F54065A842FC
:1018600007D005F58065A84203D005F58065A8423C
:101870000DD14E8922F008028D89CF8932438E889E
:1018800024F4407422F004023D4332432C43C988BF
:1018900084800383F0BC818602847047002C014061
:1018A000028CF0B422F010021204120C0D89028492
:1018B000038C4E88848823F02003028B1B0435435D
:1018C00022F4E6421B0C43EA051312040E88144D61
:1018D000120C42EA0622A8429BB2A4B292B20AD0EB
:1018E00005F50065A84206D0C98884800283F0BC53
:1018F0000187038470474FF6BF754F8923F080033B
:1019000043EA07138E89CF891D408B8824F44064F5
:101910003E4345EA031344EA86049BB2A4B2E3E7DC
:10192000002C0140028CF0B422F480721204120CDC
:101930000D890284038C4E8823F4007384881B0471
:10194000828B35431B0C43EA052322F07302154DAD
:1019500012040E88120CA8429BB2A4B242EA0602FC
:101960000AD005F50065A84206D0C9888480828324
:10197000F0BC8187038470474FF6FF354F8923F40D
:10198000006343EA07238E89CF891D408B8824F4A6
:1019900040543E4345EA032344EA06149BB2A4B2F2
:1019A000E3E700BF002C0140028C70B422F48052A7
:1019B0001204120C0D890284038C4E88848823F44F
:1019C0000053828B1B04354322F4E6421B0C43EA8E
:1019D000053312040E880E4D120C42EA0622A8426C
:1019E0009BB2A4B292B20BD005F50065A84207D015
:1019F000C9888480828370BCA0F84010038470473B
:101A00008D8924F4804444EA8514A4B2F0E700BF31
:101A1000002C0140F8B50D460E88AA8849882B890C
:101A20000446002E47D0042E00F09280082E4FD09E
:101A300040F6FF46008C1B0320F480500004000C8D
:101A40002084A08B4A4F43EA02230640208C334374
:101A50000A03BC429BB280B292B218D0454EB44247
:101A600015D0B4F1804F12D0A6F59836B4420ED0FE
:101A700006F58066B4420AD006F58066B44206D008
:101A800047F6FF5202400A4342F4805204E020F439
:101A90000050024342F48052A3832284A38BEA883D
:101AA00023F440631B041B0CA383A38B43EA022390
:101AB0009BB2A383F8BDFFF7C1FC038BEA8823F038
:101AC0000C031B041B0C0383038B13430383F8BD1C
:101AD000008C274E20F480700004000C2084A08B22
:101AE000278C80B220F0F300024342EA0312B44292
:101AF0004FEA012392B2BFB29BB217D01D48844275
:101B000014D0B4F1804F11D0A0F5983084420DD09C
:101B100000F58060844209D000F58060844205D0E1
:101B200027F420670F4347F4807304E027F400771D
:101B30003B4343F48073A2832384A38BEA8823F07E
:101B40000C031B041B0CA383A38B1343A383F8BDBB
:101B5000FFF7B2FC038BEA8823F440631B041B0CE1
:101B60000383038B43EA02239BB20383F8BD00BFC8
:101B7000002C014000340140F8B50D464988AA8880
:101B80000029B5F800C00CBF02260026012A0CBFB0
:101B9000022701272B89BCF1000F1DD1FFF74EFC56
:101BA000038BE98823F00C031B041B0C0383038BBA
:101BB0003A460B43038331462B89FFF77DFC038BA9
:101BC000EA8823F440631B041B0C0383038B43EA62
:101BD00002239BB20383F8BDFFF76EFC038BE988F9
:101BE00023F440631B041B0C0383038B3A4643EA34
:101BF00001239BB2038331462B89FFF71FFC038B24
:101C0000EA8823F00C031B041B0C0383038B134390
:101C10000383F8BD10B40B884C888A882343CC8892
:101C200013430A8923434C8913438A89234313436B
:101C3000A0F8443010BC704700234FF6FF720380B9
:101C40008280C38043800372704700BF00230380FB
:101C500043808380C380038143818381C381704734
:101C600000230122038082804380C3800381704768
:101C70000023038043808380C38003814381838169
:101C8000704700BF038819B143F001030380704718
:101C900023F001031B041B0C03807047B0F8443091
:101CA00021B143F40043A0F844307047C3F30E035E
:101CB000A0F84430704700BF838912B11943818175
:101CC000704723EA01018181704700BF818270471C
:101CD0000A43A0F848207047FFF7EEBF038923F0BE
:101CE00007031B041B0C0381704700BF038923F00B
:101CF00070031B041B0C19430181038943F0070384
:101D000003817047602938B50D46044611464FF0EF
:101D100001020DD0FFF792FB218921F07001090427
:101D2000090C29432181238943F00703238138BD0E
:101D3000FFF7C2FBF0E700BF10B4048942EA0323B7
:101D40001943E4B20C43A4B20481038910BC23F00C
:101D500077031B041B0C43F077030381704700BF1C
:101D600010B4048942EA03231943E4B20C43A4B239
:101D70000481038910BC43F480430381704700BF92
:101D800010B404890A4342EA0323E4B21C43A4B218
:101D9000048110BC704700BF01858282704700BF7C
:101DA000038823F070031B041B0C19430180704748
:101DB000038923F070031B041B0C19430181704736
:101DC000F0B40589078B048C0B4E24F0220425F017
:101DD0000705240442EA03133E402D04240C2D0C75
:101DE0001C4346F480732943A4B243F001030181EC
:101DF00003830484F0BC7047FCFCFFFF038B23F0DB
:101E000070031B041B0C194301837047038B23F4DD
:101E1000E0431B041B0C43EA012189B20183704794
:101E2000838B23F070031B041B0C194381837047C1
:101E3000838B23F4E0431B041B0C43EA012189B28A
:101E400081837047038819B143F080030380704792
:101E500023F080031B041B0C03807047838819B197
:101E600043F004038380704723F004031B041B0C1E
:101E700083807047838819B143F0080383807047DB
:101E800023F008031B041B0C83807047838819B15F
:101E900043F001038380704723F001031B041B0CF4
:101EA00083807047038B23F008031B041B0C19432A
:101EB00001837047038B23F400631B041B0C43EA6C
:101EC000012189B201837047838B23F008031B042F
:101ED0001B0C194381837047838B23F400631B041D
:101EE0001B0C43EA012189B281837047038B23F0E5
:101EF00004031B041B0C194301837047038B23F459
:101F000080631B041B0C43EA012189B201837047E3
:101F1000838B23F004031B041B0C1943818370473C
:101F2000838B23F480631B041B0C43EA012189B2D9
:101F300081837047038B23F080031B041B0C194320
:101F400001837047038BC3F30E0343EA012189B277
:101F500001837047838B23F080031B041B0C194300
:101F600081837047838BC3F30E0343EA012189B257
:101F700081837047038C23F002031B041B0C19435D
:101F800001847047038C23F008031B041B0C1943C6
:101F900001847047038C23F020031B041B0C43EACD
:101FA000011189B201847047038C23F080031B0464
:101FB0001B0C43EA011189B201847047038C23F49E
:101FC00000731B041B0C43EA012189B20184704792
:101FD000038C23F400631B041B0C43EA012189B228
:101FE00001847047038C23F400531B041B0C43EA49
:101FF000013189B20184704710B40124038C8C40F4
:1020000023EA04030384038C02FA01F1194389B221
:10201000018410BC704700BF10B40424038C8C40B2
:1020200023EA04030384038C02FA01F1194389B201
:10203000018410BC704700BF10B40124038C8C4095
:1020400023EA040321F00804038418306CB1043936
:10205000C1F34E010B58120223F4E0430B500B580E
:1020600092B21A430A5010BC704749080B5810BC72
:1020700023F070030B500B581A430A50704700BFEF
:10208000038819B143F002030380704723F0020371
:102090001B041B0C03807047038819B143F0040331
:1020A0000380704723F004031B041B0C038070475C
:1020B000838819B143F080038380704723F0800345
:1020C0001B041B0C83807047038823F008031B0448
:1020D0001B0C03800388194301807047838823F019
:1020E00070031B041B0C8380838819438180704715
:1020F000038923F007031B041B0C03810389194385
:1021000001817047038923F080031B041B0C0381AA
:102110000389194301817047818470478185704725
:10212000818670470187704781877047A0F840100B
:10213000704700BF038B23F00C031B041B0C0383AD
:10214000038B194301837047038B23F440631B0403
:102150001B0C0383038B43EA012189B2018370477F
:10216000838B23F00C031B041B0C8383838B194389
:1021700081837047838B23F440631B041B0C838390
:10218000838B43EA012189B281837047038823F45A
:1021900040731B041B0C03800388194301807047A4
:1021A000808E7047008F7047808F7047B0F8400076
:1021B000704700BF808C7047008D7047038A1942BA
:1021C00014BF012000207047C94389B201827047C3
:1021D000038A828911EA030092B203D00A4214BF33
:1021E00001200020704700BFC94389B201827047B7
:1021F00008B50D4B012198420AD04FF48000FEF73C
:1022000083FDBDE8084000214FF48000FEF77CBD4F
:102210004FF40010FEF778FDBDE8084000214FF4B0
:102220000010FEF771BD00BF00540040F0B5044639
:102230000D4687B0868801A8FEF7EEFC03982B496F
:1022400026F03F06A1FB00313604890C360C8FB214
:102250003E43A68022882B6822F00102244E1204FD
:10226000120CB34222801BD85B00B0FBF3F39BB28D
:10227000042B38BF042301372784A38322881D4BF6
:1022800042F0010222802288A9886E8928891340A1
:10229000AA8931430B4302432380228107B0F0BD5A
:1022A0004BF6FF72EE8896421AD003EB830303EBE2
:1022B0008303B0FBF3F39BB243F48043C3F30B02FD
:1022C0000AB943F001034FF4967202FB01F10A4A86
:1022D00043F40043A2FB0121890901312184CCE7A9
:1022E00003EB4303B0FBF3F39BB2E7E783DE1B434F
:1022F000A0860100F5FBFFFFD34D621010B4002251
:1023000041F288344FF4804303498260C0E90041C0
:10231000838110BC704700BF0000FFBF038819B164
:1023200043F001030380704723F001031B041B0CDF
:1023300003807047838819B143F40063838070473A
:1023400023F400631B041B0C83807047838819B13E
:1023500043F480538380704723F480531B041B0C89
:1023600083807047038819B143F4807303807047FA
:1023700023F480731B041B0C03807047038819B17E
:1023800043F400730380704723F400731B041B0C99
:1023900003807047038819B143F48063038070475A
:1023A00023F480631B041B0C03807047838901F0B6
:1023B000FE019BB223F0FE030B438381704700BFF5
:1023C000838919B143F001038381704723F001032E
:1023D0001B041B0C83817047038819B143F0400331
:1023E0000380704723F040031B041B0C03807047DD
:1023F000838812B119438180704723EA01018180EB
:10240000704700BF01827047008AC0B2704700BFAA
:1024100022B141F0010189B20182704701F0FE0151
:1024200089B20182704700BF002382B001930190FE
:10243000019B19440191019B188802B0704700BFAD
:10244000038819B143F4004303807047C3F30E03BC
:10245000038070470388B1F5006F1BBF23F400634E
:102460001B0443F400631B0C038070470388B1F521
:10247000005F1BBF23F400531B0443F400531B0CE9
:1024800003807047038819B143F480530380704779
:1024900023F480531B041B0C03807047FFF7DABF43
:1024A000038819B143F020030380704723F0200311
:1024B0001B041B0C03807047008B000A704700BF91
:1024C000038819B143F010030380704723F0100311
:1024D0001B041B0C03807047038819B943F0800369
:1024E0000380704723F080031B041B0C038070479C
:1024F000838BB1F5804F1DBF23F480431B041B0C5D
:1025000043F4804383837047838A008B43EA00430C
:102510000B4023F07F43581AB0FA80F0400970470F
:10252000838A008B43EA004020F07F40704700BF61
:10253000002382B00A0F0093019301900092009B48
:1025400021F07F4153B1019B14330193019B1B6820
:102550000B4214BF0120002002B07047019B090C00
:1025600018330193F2E700BFC94389B281827047F3
:102570008388808A9BB2084006D003EA114313F493
:10258000E06F14BF01200020704700BFC94389B22B
:102590008182704740F0BF60024B40F40030D86049
:1025A000704700BF00ED00E0F0B401240178C3786B
:1025B00001F01F0294404E09BBB10F4B8278DD68D9
:1025C0004778E8430F23C0F30220C0F10405C3405D
:1025D000AF4013403B43094A1B01DBB2114481F871
:1025E000003342F82640F0BC7047044B203643F8D5
:1025F0002640F0BC704700BF00ED00E000E100E0C5
:1026000021F0604121F07F01014B01439960704747
:1026100000ED00E0044A136911B1034313617047F0
:1026200023EA00031361704700ED00E0044A042828
:1026300013680CBF43F0040323F0040313607047D6
:1026400010E000E080F0004002E000BF81F00041B7
:1026500042001FBF5FEA410392EA030F7FEA226C48
:102660007FEA236C6AD04FEA1262D2EB1363C1BFD8
:10267000D218414048404140B8BF5B42192B88BF47
:10268000704710F0004F40F4000020F07F4018BF6A
:10269000404211F0004F41F4000121F07F4118BF8A
:1026A000494292EA030F3FD0A2F1010241FA03FC32
:1026B00010EB0C00C3F1200301FA03F100F000431A
:1026C00002D5494260EB4000B0F5000F13D3B0F1E2
:1026D000807F06D340084FEA310102F10102FE2A51
:1026E00051D2B1F1004F40EBC25008BF20F00100C1
:1026F00040EA03007047490040EB000010F4000F6F
:10270000A2F10102EDD1B0FA80FCACF1080CB2EB01
:102710000C0200FA0CF0AABF00EBC2505242184360
:10272000BCBFD0401843704792F0000F81F4000105
:1027300006BF80F400000132013BB5E74FEA4103D8
:102740007FEA226C18BF7FEA236C21D092EA030F44
:1027500004D092F0000F08BF0846704790EA010FBE
:102760001CBF0020704712F07F4F04D1400028BFEB
:1027700040F00040704712F100723CBF00F50000CD
:10278000704700F0004343F0FE4040F40000704703
:102790007FEA226216BF08467FEA236301464202AF
:1027A00006BF5FEA412390EA010F40F480007047C2
:1027B0004FF0000304E000BF10F0004348BF404268
:1027C0005FEA000C08BF704743F0964301464FF0A4
:1027D00000001CE050EA010208BF70474FF0000300
:1027E0000AE000BF50EA010208BF704711F0004341
:1027F00002D5404261EB41015FEA010C02BF844611
:102800000146002043F0B64308BFA3F18053A3F56F
:102810000003BCFA8CF2083AA3EBC25310DB01FAB6
:1028200002FC634400FA02FCC2F12002BCF1004F3A
:1028300020FA02F243EB020008BF20F001007047CB
:1028400002F1200201FA02FCC2F1200250EA4C001F
:1028500021FA02F243EB020008BF20EADC70704765
:102860004FF0FF0C1CEAD0521EBF1CEAD15392EA73
:102870000C0F93EA0C0F6FD01A4480EA010C40024F
:1028800018BF5FEA41211ED04FF0006343EA5010A9
:1028900043EA5111A0FB01310CF00040B1F5000FEB
:1028A0003EBF490041EAD3715B0040EA010062F19A
:1028B0007F02FD2A1DD8B3F1004F40EBC25008BF84
:1028C00020F00100704790F0000F0CF0004C08BFA2
:1028D00049024CEA502040EA51207F3AC2BFD2F16F
:1028E000FF0340EAC250704740F400004FF000037D
:1028F000013A5DDC12F1190FDCBF00F000407047B7
:10290000C2F10002410021FA02F1C2F1200200FAF4
:1029100002FC5FEA310040F1000053EA4C0308BFBB
:1029200020EADC70704792F0000F00F0004C02BF0C
:10293000400010F4000F013AF9D040EA0C0093F087
:10294000000F01F0004C02BF490011F4000F013BE1
:10295000F9D041EA0C018FE70CEAD15392EA0C0F4F
:1029600018BF93EA0C0F0AD030F0004C18BF31F0BA
:10297000004CD8D180EA010000F00040704790F090
:10298000000F17BF90F0004F084691F0000F91F034
:10299000004F14D092EA0C0F01D142020FD193EAFA
:1029A0000C0F03D14B0218BF084608D180EA010082
:1029B00000F0004040F0FE4040F40000704740F05E
:1029C000FE4040F4400070474FF0FF0C1CEAD0522C
:1029D0001EBF1CEAD15392EA0C0F93EA0C0F69D088
:1029E000A2EB030280EA010C49024FEA402037D0F3
:1029F0004FF0805343EA111143EA10130CF00040EA
:102A00008B4238BF5B0042F17D024FF4000C8B42D9
:102A100024BF5B1A40EA0C00B3EB510F24BFA3EBB9
:102A2000510340EA5C00B3EB910F24BFA3EB910389
:102A300040EA9C00B3EBD10F24BFA3EBD10340EAE3
:102A4000DC001B0118BF5FEA1C1CE0D1FD2A3FF629
:102A500050AF8B4240EBC25008BF20F001007047DE
:102A60000CF0004C4CEA50207F32C2BFD2F1FF0381
:102A700040EAC250704740F400004FF00003013AB2
:102A800037E792F0000F00F0004C02BF400010F456
:102A9000000F013AF9D040EA0C0093F0000F01F06A
:102AA000004C02BF490011F4000F013BF9D041EA8C
:102AB0000C0195E70CEAD15392EA0C0F08D14202BF
:102AC0007FF47DAF93EA0C0F7FF470AF084676E792
:102AD00093EA0C0F04D14B023FF44CAF08466EE76B
:102AE00030F0004C18BF31F0004CCAD130F0004239
:102AF0007FF45CAF31F000437FF43CAF5FE700BF91
:102B000042000ED2B2F1FE4F0BD34FF09E03B3EB57
:102B1000126209D44FEA002343F0004323FA02F083
:102B200070474FF00000704712F1610F01D142026F
:102B300002D14FF0FF3070474FF00000704700BFE8
:102B4000034613F8012B002AFBD1181A01387047ED
:102B500081F0004102E000BF83F0004330B54FEA4E
:102B600041044FEA430594EA050F08BF90EA020FBB
:102B70001FBF54EA000C55EA020C7FEA645C7FEA4E
:102B8000655C00F0E2804FEA5454D4EB5555B8BF71
:102B90006D420CDD2C4480EA020281EA030382EAE2
:102BA000000083EA010180EA020281EA0303362D74
:102BB00088BF30BD11F0004F4FEA01314FF4801C47
:102BC0004CEA113102D0404261EB410113F0004F59
:102BD0004FEA03334CEA133302D0524263EB430310
:102BE00094EA050F00F0A780A4F10104D5F1200EAE
:102BF0000DDB02FA0EFC22FA05F2801841F1000109
:102C000003FA0EF2801843FA05F359410EE0A5F1DC
:102C100020050EF1200E012A03FA0EFC28BF4CF00D
:102C2000020C43FA05F3C01851EBE37101F00045C3
:102C300007D54FF0000EDCF1000C7EEB00006EEBD0
:102C40000101B1F5801F1BD3B1F5001F0CD349085A
:102C50005FEA30004FEA3C0C04F101044FEA4452B1
:102C600012F5800F80F09A80BCF1004F08BF5FEA38
:102C7000500C50F1000041EB045141EA050130BD18
:102C80005FEA4C0C404141EB010111F4801FA4F1BB
:102C90000104E9D191F0000F04BF01460020B1FA10
:102CA00081F308BF2033A3F10B03B3F120020CDA48
:102CB0000C3208DD02F1140CC2F10C0201FA0CF026
:102CC00021FA02F10CE002F11402D8BFC2F1200C8B
:102CD00001FA02F120FA0CFCDCBF41EA0C01904041
:102CE000E41AA2BF01EB0451294330BD6FEA04048A
:102CF0001F3C1CDA0C340EDC04F11404C4F1200275
:102D000020FA04F001FA02F340EA030021FA04F386
:102D100045EA030130BDC4F10C04C4F1200220FADD
:102D200002F001FA04F340EA0300294630BD21FA1B
:102D300004F0294630BD94F0000F83F4801306BFE1
:102D400081F480110134013D4EE77FEA645C18BFD5
:102D50007FEA655C29D094EA050F08BF90EA020F6C
:102D600005D054EA000C04BF1946104630BD91EA64
:102D7000030F1EBF0021002030BD5FEA545C05D167
:102D80004000494128BF41F0004130BD14F58004A6
:102D90003CBF01F5801130BD01F0004545F0FE411A
:102DA00041F470014FF0000030BD7FEA645C1ABF4F
:102DB000194610467FEA655C1CBF0B46024650EA86
:102DC000013406BF52EA033591EA030F41F40021B2
:102DD00030BD00BF90F0000F04BF0021704730B538
:102DE0004FF4806404F132044FF000054FF000010D
:102DF00050E700BF90F0000F04BF0021704730B5CE
:102E00004FF4806404F1320410F0004548BF4042A2
:102E10004FF000013EE700BF42004FEAE2014FEAF7
:102E200031014FEA02701FBF12F07F4393F07F4FD2
:102E300081F06051704732F07F4208BF704793F0D5
:102E40007F4F04BF41F40021704730B54FF46074E8
:102E500001F0004521F000411CE700BF50EA0102EB
:102E600008BF704730B54FF000050AE050EA010294
:102E700008BF704730B511F0004502D5404261EB04
:102E800041014FF4806404F132045FEA915C3FF445
:102E9000D8AE4FF003025FEADC0C18BF03325FEAE2
:102EA000DC0C18BF033202EBDC02C2F1200300FA93
:102EB00003FC20FA02F001FA03FE40EA0E0021FAB8
:102EC00002F11444BDE600BF70B54FF0FF0C4CF4A6
:102ED000E06C1CEA11541DBF1CEA135594EA0C0F58
:102EE00095EA0C0F00F0DEF82C4481EA030621EA93
:102EF0004C5123EA4C5350EA013518BF52EA0335CE
:102F000041F4801143F4801338D0A0FB02CE4FF07F
:102F10000005E1FB02E506F00042E0FB03E54FF0AF
:102F20000006E1FB03569CF0000F18BF4EF0010EA7
:102F3000A4F1FF04B6F5007F64F5407404D25FEAA3
:102F40004E0E6D4146EB060642EAC62141EA555156
:102F50004FEAC52040EA5E504FEACE2EB4F1FD0C98
:102F600088BFBCF5E06F1ED8BEF1004F08BF5FEA16
:102F7000500E50F1000041EB045170BD06F00046C8
:102F800046EA010140EA020081EA0301B4EB5C0475
:102F9000C2BFD4EB0C0541EA045170BD41F480116D
:102FA0004FF0000E013C00F3AB8014F1360FDEBF92
:102FB000002001F0004170BDC4F10004203C35DA6E
:102FC0000C341BDC04F11404C4F1200500FA05F3F1
:102FD00020FA04F001FA05F240EA020001F0004292
:102FE00021F0004110EBD37021FA04F642EB060108
:102FF0005EEA430E08BF20EAD37070BDC4F10C0432
:10300000C4F1200500FA04F320FA05F001FA04F2F5
:1030100040EA020001F0004110EBD37041F10001E1
:103020005EEA430E08BF20EAD37070BDC4F12005EC
:1030300000FA05F24EEA020E20FA04F301FA05F254
:1030400043EA020321FA04F001F0004121FA04F2FC
:1030500020EA020000EBD3705EEA430E08BF20EACC
:10306000D37070BD94F0000F0FD101F00046400006
:1030700041EB010111F4801F08BF013CF7D041EA88
:10308000060195F0000F18BF704703F0004652008C
:1030900043EB030313F4801F08BF013DF7D043EA5D
:1030A0000603704794EA0C0F0CEA135518BF95EA13
:1030B0000C0F0CD050EA410618BF52EA4306D1D19A
:1030C00081EA030101F000414FF0000070BD50EAB9
:1030D000410606BF1046194652EA430619D094EA43
:1030E0000C0F02D150EA013613D195EA0C0F05D12D
:1030F00052EA03361CBF104619460AD181EA030181
:1031000001F0004141F0FE4141F470014FF0000038
:1031100070BD41F0FE4141F4780170BD70B54FF0D3
:10312000FF0C4CF4E06C1CEA11541DBF1CEA135553
:1031300094EA0C0F95EA0C0F00F0A7F8A4EB050435
:1031400081EA030E52EA03354FEA013100F088802C
:103150004FEA03334FF0805545EA131343EA1263F5
:103160004FEA022245EA111545EA10654FEA0026AA
:103170000EF000419D4208BF964244F1FD0404F563
:10318000407402D25B084FEA3202B61A65EB0305BF
:103190005B084FEA32024FF480104FF4002CB6EB7C
:1031A000020E75EB030E22BFB61A754640EA0C00FC
:1031B0005B084FEA3202B6EB020E75EB030E22BF3C
:1031C000B61A754640EA5C005B084FEA3202B6EB7D
:1031D000020E75EB030E22BFB61A754640EA9C003C
:1031E0005B084FEA3202B6EB020E75EB030E22BF0C
:1031F000B61A754640EADC0055EA060E18D04FEACA
:10320000051545EA16754FEA06164FEAC30343EA69
:1032100052734FEAC2025FEA1C1CC0D111F4801F36
:103220000BD141EA00014FF000004FF0004CB6E72F
:1032300011F4801F04BF01430020B4F1FD0C88BFCE
:10324000BCF5E06F3FF6AFAEB5EB030C04BFB6EBD9
:10325000020C5FEA500C50F1000041EB045170BDCC
:103260000EF0004E4EEA113114EB5C04C2BFD4EBF9
:103270000C0541EA045170BD41F480114FF0000E7D
:10328000013C90E645EA060E8DE60CEA135594EAF9
:103290000C0F08BF95EA0C0F3FF43BAF94EA0C0FFC
:1032A0000AD150EA01347FF434AF95EA0C0F7FF471
:1032B00025AF104619462CE795EA0C0F06D152EAC5
:1032C00003353FF4FDAE1046194622E750EA4106A9
:1032D00018BF52EA43067FF4C5AE50EA41047FF4BA
:1032E0000DAF52EA43057FF4EBAE12E74FF0FF3C1F
:1032F00006E000BF4FF0010C02E000BF4FF0010CF0
:103300004DF804CD4FEA410C7FEA6C5C4FEA430C68
:1033100018BF7FEA6C5C1BD001B050EA410C0CBFB7
:1033200052EA430C91EA030F02BF90EA020F002019
:10333000704710F1000F91EA030F58BF994208BF80
:1033400090422CBFD8176FEAE37040F0010070473D
:103350004FEA410C7FEA6C5C02D150EA013C07D194
:103360004FEA430C7FEA6C5CD6D152EA033CD3D0DF
:103370005DF8040B704700BF8446104662468C46D9
:103380001946634600E000BF01B5FFF7B7FF00280C
:1033900048BF10F1000F01BD4DF808EDFFF7F4FF35
:1033A0000CBF012000205DF808FB00BF4DF808EDC0
:1033B000FFF7EAFF34BF012000205DF808FB00BFE3
:1033C0004DF808EDFFF7E0FF94BF012000205DF805
:1033D00008FB00BF4DF808EDFFF7CEFF94BF0120BA
:1033E00000205DF808FB00BF4DF808EDFFF7C4FFB3
:1033F00034BF012000205DF808FB00BF4FEA410CFC
:103400007FEA6C5C02D150EA013C0AD14FEA430CDE
:103410007FEA6C5C02D152EA033C02D14FF000001B
:1034200070474FF0010070474FEA410212F5001259
:1034300015D211D56FF47873B3EB625212D94FEAFB
:10344000C12343F0004343EA505311F0004F23FAE5
:1034500002F018BF404270474FF00000704750EA3A
:10346000013005D111F0004008BF6FF000407047F7
:103470004FF00000704700BF08B5FCF769FEFCF78D
:10348000A5FEFCF7F9FEFCF7CBFEFCF739FF202187
:103490000948FDF757FF90210848FCF795FF0849B8
:1034A0000848FDF781F805489021FCF7BFFF064862
:1034B00000F01EFDFEE700BF000801400054004080
:1034C000A860000800440040BC600008002103E040
:1034D0000B4B5B58435004310A480B4B42189A423D
:1034E000F6D30A4A02E0002342F8043B084B9A4212
:1034F000F9D3FDF7FDF900F00FF8FFF7BDFF7047B6
:103500006064000800000020F8010020F80100209D
:1035100028030020FEE7000070B500260C4D0D4C7E
:10352000641BA410A64209D102F08AFF00260A4DAE
:103530000A4C641BA410A64205D170BD55F8043B8B
:1035400098470136EEE755F8043B98470136F2E715
:103550005864000858640008586400085C64000857
:1035600003460244934200D1704703F8011BF9E778
:10357000002B2DE9F0471E46BBBF03F100431E465A
:1035800000232D2388B0149F144627F02007129A99
:10359000462F109DDDF84CA0137004D0452F00D1AC
:1035A0000135022300E0032307AA049206AACDE90D
:1035B00002A2CDE900352246334600F00DFE472F2A
:1035C000804602D1119BDB0722D5462F08EB050967
:1035D00011D198F80030302B0AD100220023204668
:1035E0003146FFF7D9FE18B9C5F10105CAF80050F8
:1035F000DAF8003099440022002320463146FFF7D4
:10360000CBFE08B1CDF81C903022079B4B4508D368
:103610004046079B159AA3EB0803136008B0BDE86A
:10362000F087591C07911A70EFE7F7B50029B6BF6C
:103630002D232B23494209290270437022DD0DF10D
:1036400007031F460A2691FBF6F206FB12146329B4
:1036500004F1300403F1FF3503F8014C0ADC303289
:1036600005F8012C023B821CBB42144605D3201AEC
:1036700003B0F0BD2B461146E5E713F8011B02F835
:10368000011BF1E7302319448370041DC170EEE77C
:103690002DE9F04F91B00C461A9F93461E46054601
:1036A00001F000FD036818460993FFF749FA00236B
:1036B0000E933B680A90073323F0070303F10802D7
:1036C00094F81880D4F800A03A60D3E90023C4E944
:1036D0001223D4E9129727F000430B934FF0FF32E7
:1036E000A64B48460B99FFF789FE68BB4FF0FF32A7
:1036F000A24B48460B99FFF763FE28BB002200232C
:1037000048463946FFF752FE10B12D2384F8433066
:103710009B4F9C4BB8F1470F88BF1F4603234FF0C8
:10372000000923612AF00403236000965B460FAA78
:103730002146284600F0CAF9013040F08F804FF052
:10374000FF3011B0BDE8F08F4A463B464846394647
:10375000FFF754FE40B1002FB8BF2D238A4FB8BFEA
:1037600084F84330894BD5E7636808F0DF015A1CC1
:1037700042D106236360002206920EAACDE904829C
:103780000DAA4AF4806303920DF13302CDE90132B0
:10379000236063684A46009328463B460B91FFF737
:1037A000E7FE0B99074647290D9908D1C81C02DB93
:1037B0006368994240DDA8F102085FFA88F8B8F121
:1037C000650F1FD80139424604F150000D91FFF7F3
:1037D0002CFF0E9A81461318012A236102DC22680D
:1037E000D20701D5013323619DF83330002B9CD0E3
:1037F0002D2384F8433098E74729BCD1002BBAD158
:103800000123B7E7B8F1660F18D1002963680BDD13
:10381000216113B92268D00702D501330B4423611B
:10382000A1654FF00009DFE713B92268D20701D57F
:103830000233F4E70123F2E74FF067080E9B994249
:1038400005DB23682161D807EAD54B1CE7E700298F
:10385000CCBF0122C1F102021344E0E723685A05FC
:1038600007D423693A4659462846B047013029D142
:1038700065E7B8F1650F40F2D880D4E91201002263
:103880000023FFF789FD88B30123414A59462846A2
:10389000B04701303FF453AFDDE90D239A4202DB1C
:1038A0002368D8070ED5DDE9092359462846B047D5
:1038B00001303FF444AF002704F11A080E9B013B8E
:1038C000BB4209DC23689F0700F1FB80E0680F9B87
:1038D0009842B8BF184634E7012342465946284665
:1038E000B04701303FF42BAF0137E7E70D9B002BCA
:1038F0002BDC0123264A59462846B04701303FF4C5
:103900001EAFDDE90D23134302D12368D907D9D5B2
:10391000DDE9092359462846B04701303FF40FAF8F
:103920004FF0000804F11A090D9B5B42434501DC8E
:103930000E9B97E701234A4659462846B047013077
:103940003FF4FDAE08F10108EEE70E9AA36D9A422E
:10395000A8BF1A46002A904607DD134659463A4644
:103960002846B04701303FF4EAAE04F11A034FF0A5
:10397000000A28EAE8780B9316E000BFFFFFEF7F0C
:103980008061000884610008886100088C6100087B
:103990009061000801230B9A59462846B047013030
:1039A0003FF4CDAE0AF1010AD4F85890A9EB080310
:1039B0005345EFDCDDE90D239A421ADB2368DA0771
:1039C00017D4DDE90D2391451BDBA3EB0908B8F102
:1039D000000F08DD434607EB090259462846B04769
:1039E00001303FF4ACAE002728EAE87804F11A0968
:1039F00013E0DDE9092359462846B0470130E0D1FC
:103A00009DE6A3EB0208E2E701234A465946284611
:103A1000B04701303FF493AE0137DDE90D239B1A27
:103A2000A3EB0803BB42EFDC4CE70E9A012A01DC52
:103A3000DB0734D501233A4659462846B0470130C2
:103A40003FF47DAEDDE9092359462846B0470130F1
:103A50003FF475AED4E9120100220023FFF79CFC6D
:103A6000C8B90E9B7A1C013B59462846B047013025
:103A70000DD164E60123424659462846B04701303D
:103A80003FF45DAE01370E9B013BBB42F2DC4B467F
:103A900004F15002E7E6002704F11A08F3E70123D6
:103AA0003A46E1E70123424659462846B0470130ED
:103AB0003FF445AE0137E3680F9A9B1ABB42F1DC35
:103AC00004E7002704F11908F5E700BF2DE9F047E6
:103AD00091461F468A680B6906469342B8BF134653
:103AE000C9F8003091F843200C46DDF8208012B16F
:103AF0000133C9F800302368990642BFD9F8003075
:103B00000233C9F80030256815F0060507D104F125
:103B1000190AE368D9F800209B1AAB4229DC94F813
:103B200043302268003318BF012392062ED404F1DB
:103B3000430239463046C047013021D02368E5684A
:103B400003F00603042B18BF0025D9F800204FF01E
:103B5000000908BFAD1AA368226908BF25EAE57508
:103B60009342C4BF9B1AED181A344D451AD1002058
:103B700008E00123524639463046C047013003D1A0
:103B80004FF0FF30BDE8F0870135C2E73020E11883
:103B900081F843005A1C94F845102244023382F8FD
:103BA0004310C4E70123224639463046C04701305E
:103BB000E6D009F10109D8E72DE9F04306460C46A5
:103BC00001F14300097E85B06E29984617460C9B8B
:103BD00000F0BB8024D8632939D00AD8002900F02E
:103BE000C480582900F0928004F1420584F8421004
:103BF00035E0642901D06929F6D125681A6815F0E5
:103C0000800F02F104012CD012681960002A03DA37
:103C10002D23524284F84330DFF8C0C10A233FE02D
:103C2000732900F0A68008D86F2921D07029DBD134
:103C3000226842F02002226003E0752918D078291A
:103C4000D2D17822DFF898C184F8452062E01A6862
:103C500004F14205111D1960136884F842300123F4
:103C600094E0126815F0400F196018BF12B2CDE74A
:103C7000D4F800C01A681CF0800F02F104051D6022
:103C800001D0126803E01CF0400FFAD012886F29AF
:103C90000CBF08230A23DFF844C1002184F8431035
:103CA0006568002DA8BF2168A560A4BF21F00401AC
:103CB00021600AB9002D46D00546B2FBF3F103FBA3
:103CC000112E1CF80EE0934205F801ED39D9082BAE
:103CD0000BD12368DA0708D5236962689A42DEBFF0
:103CE000302305F8013C05F1FF35401B2061CDF87C
:103CF00000803B4603AA21463046FFF7E7FE01302D
:103D000049D14FF0FF3005B0BDE8F083DFF8CCC0FB
:103D100084F845101D68216855F8042B1D600D06B8
:103D20000BD5CD0744BF41F0200121601AB92368AB
:103D300023F0200323601023AFE74B0648BF92B265
:103D4000EFE70A46B9E70546C1E71A68D4F800C0AC
:103D5000151D61691CF0800F1D60136801D019608A
:103D600003E01CF0400FFAD01980002305462361C0
:103D7000BDE71A68111D19601568002162682846A0
:103D800001F004FA08B1401B6060636823610023FE
:103D900084F84330ABE723692A4639463046C047AA
:103DA0000130AED023689B0713D4E068039B984290
:103DB000B8BF1846A7E701234A4639463046C047F0
:103DC00001309ED00135E368039A9B1AAB42F2DCC6
:103DD000EBE7002504F11909F5E700BF926100083F
:103DE000A36100080FB40A4B13B51C6824B1A36982
:103DF00013B9204601F0BAF805AB049AA168204631
:103E0000019301F0E5FE02B0BDE8104004B0704738
:103E10002800002070B50E46054618B183690BB91D
:103E200001F0A4F8AB69AC6813B9284601F09EF81C
:103E30002C4B9C4220D16C68636EDB0705D4A389B0
:103E4000980502D4A06D01F032F9A38919071DD598
:103E50002369DBB1013EA36816F8011F013BA36093
:103E600039BB002B38DA22460A21284600F068F8D0
:103E7000013011D00A2511E01B4B9C4201D1AC68E6
:103E8000DAE71A4B9C4208BFEC68D5E72146284682
:103E900000F0A8F80028DDD04FF0FF35636EDA0798
:103EA00005D4A3899B0502D4A06D01F001F9284631
:103EB00070BD002B04DAA2699A4206DC0A2904D0FC
:103EC00023685A1C22601970C5E72246284600F074
:103ED00037F80130BFD1DFE70A2523685A1C22607A
:103EE0001D70DBE7E461000804620008C46100089B
:103EF000024B01461868FFF78DBF00BF2800002065
:103F00000EB46FF0004100B59CB01DAB029006905E
:103F1000079104910848094953F8042B059100685A
:103F200002A9019301F034FD0022029B1A701CB01B
:103F30005DF804EB03B07047280000200802FFFF83
:103F4000F8B50E461446054618B183690BB901F061
:103F50000DF8214B9C422BD16C68A369A360A38907
:103F60001A072FD523696BB323692068F6B2C01AEC
:103F700063693746834204DC2146284600F062FF2D
:103F800030BBA3680130013BA36023685A1C226048
:103F90001E706369834204D0A389DB0706D50A2E0D
:103FA00004D12146284600F04DFF88B93846F8BDB7
:103FB0000A4B9C4201D1AC68CFE7094B9C4208BF39
:103FC000EC68CAE72146284600F00CF80028CBD060
:103FD0004FF0FF37EAE700BFE46100080462000821
:103FE000C4610008324B70B51D6806460C4625B109
:103FF000AB6913B9284600F0B9FF2E4B9C420FD194
:104000006C68B4F90C309AB215072CD4D00611D4D0
:104010000922326043F04003A3814FF0FF303EE0BD
:10402000254B9C4201D1AC68EBE7244B9C4208BF76
:10403000EC68E6E7510712D5616B41B104F1440326
:10404000994202D0304601F0A1FB00236363A389AB
:1040500023F02403A3810023636023692360A389E1
:1040600043F00803A38123694BB9A38903F42073A8
:10407000B3F5007F03D02146304601F03FF8A28916
:1040800012F001030CD00023A36063695B42A361BB
:10409000236953B9B4F90C3013F08000BAD170BD64
:1040A000920758BF6369A360F2E70020F7E700BFFB
:1040B00028000020E461000804620008C4610008D0
:1040C0002DE9F74F03690C698046A342C0F2828054
:1040D000013CA00008F1140501F114072B1801930D
:1040E00057F8243055F8242001339A4207EB000991
:1040F000B2FBF3F632D34FF0000ABC46AE46D346CD
:104100005CF8042B93B206FB03A3120C4FEA134A8C
:1041100006FB02A29BB2ABEB0303DEF800B04FEA52
:10412000124A1FFA8BFB5B441FFA82FBDEF8002069
:10413000E145CBEB124202EB23429BB243EA02433E
:104140004FEA224B4EF8043BDAD22B5833B9019B8D
:10415000043B9D421A4631D3C8F81040404601F056
:1041600040FA002826DB28464FF0000C013657F8AD
:10417000041BD0F800E08BB2ACEB03031FFA8EF205
:1041800013440A0CC2EB1E4202EB23429BB243EAE9
:104190000243B9454FEA224C40F8043BE7D255F8B8
:1041A000242005EB84032AB9043B9D421A460BD315
:1041B000C8F81040304603B0BDE8F08F1268043BE9
:1041C000002AC9D1013CC4E71268043B002AEFD1A0
:1041D000013CEAE70020EEE72DE9F04F476A97B08F
:1041E00080461D46239E92469B4647B9102000F00C
:1041F000C5FFC0E90177C8F824000760C760D8F898
:104200002430196859B15A68012393404A608B6081
:10421000404601F00BF80022D8F824301A602B1E1B
:10422000ADBF0023012223F0004B3360AE4BB8BF7B
:10423000326033EA0B035C461AD142F20F73229AC2
:104240001360CBF3130353EA0A0300F05F85249B4A
:1042500053B9A64B21E0A64B05930833249A13606B
:10426000059817B0BDE8F08FA04B05930333F5E731
:104270000022002350465946CDE90CABFFF78CF8DD
:10428000074660B10123229A1360249B002B00F0A3
:104290003A85984B249A1360013B0593E0E714ABF1
:1042A000019315AB00934046DDE90C2301F011FAB0
:1042B000CBF30A560390002E00F08180DDE90C4517
:1042C0000D9BA6F2FF36C3F3130343F07F5545F46D
:1042D000401512970022884B20462946FEF73CFCE9
:1042E0007BA3D3E90023FEF7EFFD7BA3D3E90023F3
:1042F000FEF734FC044630460D46FEF77BFD78A3FE
:10430000D3E90023FEF7E0FD02460B46204629468E
:10431000FEF724FC04460D46FFF786F8002281468E
:10432000002320462946FFF741F848B14846FEF7EA
:1043300061FD22462B46FFF72FF808B909F1FF3936
:10434000B9F1160F58D8DDE90C016C4B03EBC9032A
:10435000D3E90023FFF72AF800284FD0002309F102
:10436000FF391193149B9E1B731E099345BFC6F121
:10437000010308930023002354BF08930993B9F164
:10438000000F3DDB099BCDF840904B44099300237F
:104390000A93209B092B00F28D80052BC4BF043BA0
:1043A0002093209BC8BF0024A3F10203D8BF01249F
:1043B000032B00F2A780DFE803F02D3A387BDDE91C
:1043C00014631E4406F232402028C1BFC0F14000F1
:1043D000844006F212402AFA00F0D6BFC0F1200055
:1043E00020430AFA00F0FEF7F5FC01230446A1F190
:1043F000F875013E12936DE70123B2E71190B1E722
:10440000089BA3EB09030893C9F100030A93002357
:104410001093BEE700230B93219B002B75DC012337
:104420001A460693049321920BE00123F3E700233D
:104430000B93219B4B4406930133012B0493B8BF8C
:1044400001230022D8F824506A60042202F11400EB
:10445000984269685DD9404600F0B4FED8F824302F
:1044600028601B680593049B0E2B00F2D580002C5E
:1044700000F0D280B9F1000F69DD204A09F00F0386
:1044800002EBC303D3E90034CDE90E344FEA29141B
:10449000E0065AD5DDE90C01194B0327D3E90823BF
:1044A000FEF73CFE82468B4604F00F04144D41E0BB
:1044B0000123BDE7012400230B9420934FF0FF3329
:1044C0000022069304931223ADE700BFAFF30080F0
:1044D00061436F63A787D23FB3C8608B288AC63F0A
:1044E000FB799F501344D33F0000F07FBD6100086B
:1044F000B4610008916100080000F83F50620008B4
:104500002862000801230B93D8E7219B06930493AC
:1045100097E701316960520098E7E10708D5DDE9C6
:104520000E01D5E90023FEF7CFFCCDE90E010137DE
:1045300064100835002CF0D1DDE90E2350465946B1
:10454000FEF7ECFD82468B461AE00227AEE700F04C
:104550009D80DDE90C01C9F100049B4B04F00F02C2
:1045600003EBC203D3E90023FEF7AEFC0227824629
:104570008B460023954D2411002C7CD1002BE1D1DA
:10458000119B002B00F084800022914B504659462D
:104590005D46FEF70BFF00287AD0049B002B77D0F6
:1045A000069B002B36DD504659460022894BFEF70C
:1045B0008BFC82468B46069C09F1FF360137384654
:1045C000FEF718FC52465B46FEF77EFC0022824B4B
:1045D000FEF7C4FAA1F15075CDE90E010F95002C3C
:1045E00059D100227D4B50465946FEF7B5FA0E9A36
:1045F0002B4682468B46FEF7F7FE002840F0868267
:104600000E9A05F1004350465946FEF7CFFE0028AA
:1046100040F07A82DDE90CAB159B002BC0F24B8198
:10462000B9F10E0F00F34781674B03EBC903D3E9E0
:104630000034CDE90634219B002B80F2D380049B0B
:10464000002B00F3CF8040F05E82DDE906010022FE
:10465000624BFEF739FC52465B46FEF7BBFE049CFC
:104660002646002840F037823123059D09F10109D3
:1046700005F8013B33E2E20705D5D5E90023FEF753
:1046800023FC012301376410083575E7022777E71B
:104690004E46049C93E74C4B03EBC40353E90201E1
:1046A000059B1C440B9B002B44D002460B4600206C
:1046B0004B49FEF733FDDDE90E23FEF74DFACDE958
:1046C0000E01059D59465046FEF7AEFE0746FEF721
:1046D00091FB02460B4650465946FEF73DFADDE98E
:1046E0000E23303705F8017B82468B46FEF75EFECF
:1046F00000285FD152465B4600203549FEF72CFA70
:10470000DDE90E23FEF752FE002840F0B580A542F9
:1047100080D0DDE90E0100222E4BFEF7D5FB0022F2
:10472000CDE90E012B4B50465946FEF7CDFB824694
:104730008B46C7E7DDE90E23FEF7C6FB2546CDE92C
:104740000E01059F59465046FEF76EFE1390FEF788
:1047500051FB02460B4650465946FEF7FDF9139BA6
:104760008246303307F8013BA7428B464FF00002E8
:1047700024D1DDE90E011A4BFEF7F0F902460B4693
:1047800050465946FEF730FE002875D1DDE90E236C
:1047900000201349FEF7E0F902460B465046594601
:1047A000FEF704FE00283FF435AF15F8013C6A1E01
:1047B000302B01D0B1464EE01546F6E7054BFEF72B
:1047C00083FB82468B46BDE75062000828620008E2
:1047D0000000F03F0000244000001C400000144096
:1047E0000000E03F56464FF0000A5F46059DDFF8A7
:1047F00044B5DDE9062330463946FEF78FFCFEF767
:1048000013FE0446FEF7F6FADDE90623FEF75CFB2D
:1048100002460B4630463946FEF79EF904F1300653
:1048200005F8016B059E049FAE1BB74202460B467E
:1048300034D1FEF793F9DDE9062306460F46FEF76D
:10484000D3FDC0B9DDE9062330463946FEF7A4FDA5
:1048500008B1E3070FD40399404600F0E7FC0023BA
:10486000229A2B7009F101031360249B002B3FF463
:10487000F7AC1D60F4E44E4615F8012C6B1E392A86
:1048800006D1059A9A4207D13022059901360A705D
:104890001A7801321A708DE71D46EDE752465B46E5
:1048A000FEF712FB0022002306460F46FEF774FDBA
:1048B00000289ED0CFE70B9A002A00F0CC80209AE7
:1048C000012A00F3AE80129A002A00F0A68003F2BB
:1048D00033430A9C089D089A01211A440892099AB8
:1048E00040461A44099200F043FD0646002D0CDDB7
:1048F000099B002B09DDAB42A8BF2B46089AED1A95
:10490000D21A0892099AD31A09930A9BF3B10B9B06
:10491000002B00F0A480002C10DD314622464046DA
:1049200000F0BEFD039A01460646404600F029FD10
:1049300007460399404600F079FC03970A9B1A1B2F
:1049400004D00399404600F0ABFD0390012140469E
:1049500000F00EFD109B0446002B40F382801A46A7
:104960000146404600F09CFD209B0446012B7BDD68
:104970000027236904EB8303186900F0A9FCC0F148
:104980002000099B184410F01F0000F08B80C0F13C
:104990002003042B40F38480C0F11C00089B0544D5
:1049A00003440893099B03440993089B002B05DDEE
:1049B0001A460399404600F0C1FD0390099B002B65
:1049C00005DD21461A46404600F0B8FD0446119B1D
:1049D000002B69D02146039800F003FE002863DA1B
:1049E00000230A220399404600F037FC0B9B09F193
:1049F000FF390390002B00F09081002331460A22FA
:104A0000404600F02AFC069B0646002B00F38780F8
:104A1000209B022B40F383804EE0149BC3F13603AE
:104A200057E7049B5C1E0A9BA342B7BF0A9B1C1B53
:104A3000E21A109BBEBF0A949B181093049BB8BF48
:104A40000024002BBBBF089B049A089D9D1AACBF95
:104A5000049B00233FE70A9C089D0B9E46E70A9AA9
:104A60006FE7209B012B17DCBAF1000F14D1CBF3B9
:104A700013039BB92BF000473F0D3F0537B10127CA
:104A8000089B01330893099B01330993109B002B6A
:104A90007FF46FAF012074E70027F7E75746F5E78B
:104AA00083D018461C3079E7049B002B31DC209B17
:104AB000022B2EDD049B0693069B63B9214605223B
:104AC000404600F0CAFB01460446039800F089FD09
:104AD00000283FF7C9AD219B059D6FEA0309002718
:104AE0002146404600F0A2FB002E3FF4B4AE2FB1A9
:104AF000B74203D03946404600F098FB3146404665
:104B000000F094FBA7E600242646E4E7B1462646DB
:104B1000AAE50B9B002B00F0BB80049B0693002DA5
:104B200005DD31462A46404600F008FD0646002FC6
:104B300052D07168404600F045FB0546326906F1E7
:104B40000C01023292000C3000F02EFB01222946AB
:104B5000404600F0F3FC37460646059B01330493BC
:104B6000DDE9052313440A930AF001030993049B2A
:104B70002146039803F1FF3AFFF7A2FA394606905F
:104B800000F1300B039800F02CFD324608902146CE
:104B9000404600F040FDC2680546FAB90146039858
:104BA00000F01FFD0246294640460B9200F03EFBF6
:104BB000209B0B9A049D43EA0201099B0B430FD1F2
:104BC000BBF1390F28D0089B002B02DD069B03F1B7
:104BD000310B8AF800B083E73046BCE70122E2E7F8
:104BE000089B002B04DB20990B4309990B431DD133
:104BF000002AEEDD01220399404600F09FFC214689
:104C0000039000F0EEFC002803DCE2D11BF0010F62
:104C1000DFD0BBF1390FD9D139238AF8003015F82C
:104C2000013C6A1E392B63D0013368E0002A07DD9E
:104C3000BBF1390FF0D00BF101038AF800304FE7D8
:104C4000049B0A9A03F801BC93423AD000230A223B
:104C50000399404600F001FBB74203904FF0000378
:104C60004FF00A023946404607D100F0F6FA0746EF
:104C70000646049B0133049379E700F0EEFA3146CF
:104C8000074600230A22404600F0E7FA0646F0E70E
:104C9000049B0693059D21460398FFF711FA059B97
:104CA00000F1300B05F801BBEA1A069B934207DDC1
:104CB00000230A220399404600F0CFFA0390EAE766
:104CC000002701220399404600F038FC214603905A
:104CD00000F087FC0028A2DC02D11BF0010F9ED15E
:104CE00015F8013C6A1E302B7FF4FAAE1546F7E743
:104CF000059B934205D13123059A09F101091370EF
:104D0000EEE615468BE7094BFFF7C7BA249B002B4D
:104D10007FF4A1AA064BFFF7C0BA069B002BB9DCB3
:104D2000209B022B3FF7C8AEB4E700BF906100089C
:104D3000B4610008000024408A892DE9F04105464D
:104D400010070C4658D44B68002B05DC0B6C002B6D
:104D500002DC0020BDE8F081E66A002EF9D00023D5
:104D600012F480522F682B6032D0606DA3895A07ED
:104D700005D56368C01A636B0BB1236CC01A00239E
:104D80000246E66A216A2846B047431CA38906D139
:104D900029681D292CD82A4ACA40D60728D50022BE
:104DA00062602269D904226004D5421C01D12B68BB
:104DB00003B96065616B2F600029CAD004F1440318
:104DC000994202D0284600F0E1FC00206063C1E770
:104DD000216A01232846B047411CC7D12B68002B0C
:104DE000C4D01D2B01D0162B01D12F60B1E7A389B0
:104DF00043F04003A381ADE70F69002FA9D09307CB
:104E000018BF00230E6808BF4B69A6EB07080F60A8
:104E10008B60B8F1000F9CDD43463A46216A284674
:104E2000A66AB047002806DCA3894FF0FF3043F0A4
:104E30004003A3818EE70744A8EB0008E9E700BF21
:104E40000100402038B50B6905460C4613B9002512
:104E5000284638BD18B183690BB900F087F8144BA8
:104E60009C421BD16C68B4F90C30002BEFD0626E01
:104E7000D00704D4990502D4A06D00F018F9284693
:104E80002146FFF759FF636E0546DA07E0D4A38990
:104E90009B05DDD4A06D00F00BF9D9E7054B9C42D2
:104EA00001D1AC68DFE7044B9C4208BFEC68DAE74D
:104EB000E461000804620008C4610008002310B522
:104EC0000446C0E90033836081814366C281C0E942
:104ED00004338361194608225C30FEF741FB054B21
:104EE00024626362044BA362044BE362044B2363BA
:104EF00010BD00BF415E0008635E00089B5E0008B5
:104F0000BF5E0008014900F0AFB800BF454E000881
:104F100070B568254A1E55430E4605F1740100F030
:104F200081FC044640B10021C0E900160C30A060AD
:104F300005F16802FEF714FB204670BD014800F041
:104F4000B6B800BF20030020014800F0B1B800BF90
:104F500020030020014800F0AAB800BF1B03002076
:104F6000014800F0A5B800BF1B03002010B504469F
:104F7000FFF7F0FFA3691BB1BDE81040FFF7F0BFDA
:104F8000C4E912332365134B134A1B68A262A34280
:104F900008BF0123204608BFA36100F01FF860602E
:104FA000204600F01BF8A060204600F017F8002211
:104FB000E06004216068FFF781FF01220921A068F9
:104FC000FFF77CFF02221221E068FFF777FF012341
:104FD000A361D1E77C610008054F0008F8B50746DA
:104FE000FFF7ACFF1E4B1E68B36913B93046FFF7DD
:104FF000BDFF4836D6E90134013B03D533680BB316
:105000003668F7E7B4F90C50D5B9164B04F15800DF
:10501000E360656600F04AF8FFF796FF2560C4E993
:105020000155C4E90455A5610822294604F15C0034
:10503000FEF796FAC4E90D55C4E912552046F8BDAD
:105040006834D9E704213846FFF762FF0446306030
:105050000028D5D1FFF778FF0C233B60EEE700BFB7
:105060007C6100080100FFFF2DE9F8438046894676
:10507000002600F1480414B93046BDE8F883D4E9AD
:105080000175013F01D52468F5E7AB89012B07D9EC
:10509000B5F90E30013303D029464046C8470643D0
:1050A0006835EEE7004870477C0100207047704784
:1050B000704770B50E46B1F90E1096B0002914462F
:1050C0001D4607DA00232B60B3891A0610D44FF46B
:1050D00080630EE06A4600F019FF0028F2DB019AB7
:1050E00002F47042A2F500535A425A412A60EEE798
:1050F00040230020236016B070BD00008B8973B57B
:105100009D0706460C4607D504F14703236023613B
:105110000123636102B070BD01AB6A46FFF7C9FFAE
:1051200000990546304600F07DFB48B9B4F90C30D3
:105130009A05EFD423F0030343F00203A381E3E7CE
:105140000D4BB362A389206043F08003A381009BD1
:1051500020616361019B5BB1B4F90E10304600F031
:10516000E7FE28B1A38923F0030343F00103A381E1
:10517000A3891D43A581CDE7054F0008024B0146D9
:10518000186800F04FBB00BF2800002010B5C9B25E
:1051900002449042034601D1002303E01C78013011
:1051A0008C42F6D1184610BD0A44914200F1FF33FB
:1051B00000D1704710B511F8014B914203F8014F2F
:1051C000F9D110BD70B5456A04460E463DB91020B0
:1051D000FFF7D4FFC0E9015560620560C560656AEC
:1051E000EB6883B1636ADB6853F82600B8B9012124
:1051F00001FA06F56A1D9200204600F0B8FA60B187
:10520000C0E901650EE021220421204600F0AFFA3A
:10521000636AE860DB68002BE4D1002070BD02689F
:1052200043F826200023C0E90333F7E770B5446A4A
:1052300006460D463CB91020FFF7A0FFC0E9014427
:1052400070620460C4603DB1736A6A68DB6853F8D9
:105250002210296043F8225070BD2DE9F0411F460D
:1052600006460C4600230D6901F1140CDCF8000021
:10527000013381B202FB0171000C0F0C02FB0070C4
:1052800089B201EB00419D424FEA10474CF8041BE4
:10529000ECDCD7B1A368AB4212DC61683046013167
:1052A000FFF790FF8046226904F10C010232920060
:1052B0000C30FFF779FF21463046FFF7B7FF444631
:1052C00004EB850301355F6125612046BDE8F0816F
:1052D000020C12040346CAB90304102013F07F4FD6
:1052E00004BF1B02083013F0704F04BF1B010430D1
:1052F00013F0404F04BF9B000230002B05DB13F07E
:10530000804F00F1010008BF202070470020E5E732
:105310000368014613F007020BD0DA0724D498077C
:1053200049BF5B089B0801200B605CBF0B6002203B
:10533000704798B2B0B910201B0C13F0FF0F04BFD8
:105340001B0A08301A0704BF1B0904309A0704BF60
:105350009B080230DA0703D45B0800F1010005D096
:105360000B6070471046E8E7002070472020704728
:1053700010B50C460121FFF725FF012244610261AF
:1053800010BD2DE9F74F90460A69D8F810300C4649
:105390009A42BEBF0B46444698462769D8F81090FB
:1053A000A368616807EB0906B342B8BF0131FFF794
:1053B00009FF00F114052B46002205EB860E73450C
:1053C00016D304F1140308F1140203EB870702EB70
:1053D00089030093009B019293420CD8002E03DDB9
:1053E0005EF8043D002B59D0066103B0BDE8F08F94
:1053F00043F8042BE3E7B2F800A0BAF1000F23D082
:10540000AC464FF0000804F1140959F8041BDCF80D
:1054100000B08BB21FFA8BFB0AFB03B34FEA114BB0
:10542000DCF8001043444FEA11480AFB0B8101EB02
:1054300013419BB243EA01434F454FEA11484CF8F0
:10544000043BE2D8CCF80080019B0432B3F8029010
:10545000B9F1000F20D0AC464FF0000A2B6804F1E0
:105460001408B8F80010BCF802B09BB209FB01B1F7
:105470008A4443EA0A434CF8043B58F8043BBCF81E
:1054800000101B0C09FB0313474503EB1A434FEABB
:10549000134AE6D8CCF8003004359BE7013E9DE77F
:1054A0002DE9F843154612F0030206460F4607D0D1
:1054B000214C013A002354F82220FFF7CEFE074684
:1054C000AD1035D0746A3CB91020FFF757FEC0E923
:1054D000014470620460C460D6F82480D8F80840A3
:1054E0004CB940F271213046FFF742FF00230446D9
:1054F000C8F8080003604FF00008EB070AD53946EA
:1055000022463046FFF73DFF814639463046FFF7D9
:105510008DFE4F466D100BD0206838B922462146CB
:105520003046FFF72EFF2060C0F800800446E4E715
:105530003846BDE8F88300BF186300082DE9F0473E
:105540000C460746164623694FEA621A0AEB03091E
:105550004968A36809F10105AB4233DB3846FFF720
:1055600031FE0023804600F1140100F110021846BC
:1055700053452ADB20692AEAEA7A04F1140316F07B
:105580001F0201EB8A0103EB800C22D00020C2F144
:10559000200E1E689640304341F8040B53F8040B6C
:1055A0009C4520FA0EF0F4D8086008B109F1020514
:1055B000013D3846C8F810502146FFF737FE4046F7
:1055C000BDE8F08701315B00C6E742F8040F013304
:1055D000CEE7043953F8042B9C4541F8042FF9D841
:1055E000E6E703690A6930B59B1A0CD192001430C2
:1055F00014318418114454F8045D51F8042D954277
:1056000003D005D30123184630BDA042F3D3FAE7F7
:105610004FF0FF33F7E72DE9F0470D4607461146F7
:1056200028461446FFF7DDFF061E08D131463846EE
:10563000FFF7C8FD0123C0E90436BDE8F087A4BF29
:1056400023462C4638466168A6BF1D460026012623
:10565000FFF7B8FD4FF0000EC6602B69266904F114
:10566000140205F1140902EB860709EB830800F127
:10567000140152F804AB59F8045B1FFA8AF373441F
:10568000ACB21B1B2C0CC4EB1A4404EB23449BB29E
:105690004FEA244EC84543EA0444944641F8044B7B
:1056A000E7D8BC4504D351F8043D83B10661C4E793
:1056B0005CF8044BA2B27244131403EB144392B28D
:1056C00042EA03424FEA234E41F8042BE9E7013E48
:1056D000E9E72DE9F3411C46DDE908650121904623
:1056E000FFF770FDC4F31302C4F30A5407462CBB42
:1056F0000192B8F1000226D068460092FFF708FE3A
:105700000099F0B1019AC0F1200302FA03F30B43B0
:10571000C2407B610192019B002B14BF0221012139
:10572000BB613961C4B1A4F2334404443460C0F1B4
:1057300035002860384602B0BDE8F08142F480129E
:10574000D6E77961E7E701A8FFF7E2FD0121019BB8
:1057500039617B612030E5E7A0F2324007EB81033D
:1057600030601869FFF7B4FDC0EB4110E1E738B5D0
:1057700002FB01F4214600F055F8054618B1224617
:105780000021FDF7EDFE284638BD000038B505467E
:10579000002943D051F8043C0C1F002BB8BFE4187B
:1057A00000F014FC1E4A1368104633B9636014609D
:1057B0002846BDE8384000F00FBCA3420BD9216851
:1057C0006218934201BF1A685B68521822606360D6
:1057D0000460EDE713465A680AB1A242FAD9196883
:1057E0005818A0420BD12068014458188242196011
:1057F000DED110685268014419605A60D8E702D9B6
:105800000C232B60D4E7206821188A4201BF11685D
:1058100052680918216062605C60C9E738BD00BF4A
:1058200000030020F8B5CD1C25F0030508350C2D2C
:1058300038BF0C25002D064601DBA94203D90C23F5
:1058400033600020F8BD00F0C1FB21490A6814460E
:105850009CB9204F3B6823B92146304600F0E0FA5E
:1058600038602946304600F0DBFA431C23D10C2374
:105870003046336000F0B0FBE3E723685B1B17D4CE
:105880000B2B03D923601C44256004E06368A2420B
:105890000CBF0B605360304600F09EFB04F10B0020
:1058A000231D20F00700C21ACCD01B1AA350C9E751
:1058B00022466468CCE7C41C24F00304A042E3D071
:1058C000211A304600F0ACFA0130DDD1CFE700BF3D
:1058D00000030020040300202DE9F0478E68824673
:1058E0009E420C469146984638D8B1F80CC01CF43C
:1058F000906F31D062692568096902EB42026F1A24
:1059000002EBD272013355103B449D4238BF1D4615
:105910001CF4806F30D02946FFF784FF064650B94B
:105920000C234FF0FF30CAF80030A38943F0400346
:10593000A381BDE8F0873A462169FFF735FCA389CA
:1059400023F4906343F08003A38126613E442660E4
:1059500046466561ED1BA560464500D94646324680
:105960004946206800F018FBA36800209B1BA36039
:1059700023681E442660DCE72A4600F033FB064617
:105980000028E2D121695046FFF700FFC8E7000078
:105990002DE9F04F1E468B899DB01B0607460D462C
:1059A00014460ED50B6963B94021FFF73BFF286011
:1059B000286120B90C233B604FF0FF30C9E0402341
:1059C0006B610023099320238DF8293030234FF099
:1059D000010ADFF898918DF82A30039623461E4677
:1059E00013F8012B0AB1252AF9D1B6EB040B0BD021
:1059F0005B46224629463846FFF76EFF013000F02D
:105A0000A380099B5B4409933378002B00F09C80B2
:105A100000234FF0FF32CDE90523013604930793AD
:105A20008DF853301A933446052214F8011B4F4861
:105A3000FFF7ACFB049BC0B9D90644BF20228DF808
:105A400053201A0744BF2B228DF8532032782A2A7C
:105A500013D0344600200A26079A214611F8013B4C
:105A6000303B092B4BD970B914E0A0EB09000AFABE
:105A700000F0184304902646D5E7039A111D1268DA
:105A80000391002A01DB079204E0524243F0020333
:105A90000792049323782E2B0CD163782A2B33D1D1
:105AA000039B02341A1D1B680392002BB8BF4FF0F2
:105AB000FF3305932E4E032221783046FFF766FB15
:105AC00038B14023801B03FA00F0049B01340343E8
:105AD000049314F8011B062226488DF82810FFF7BE
